{
  "_format": "hh-sol-artifact-1",
  "contractName": "LazyTaskMarketplace",
  "sourceName": "contracts/LazyTaskMarketplace.sol",
  "abi": [
    {
      "inputs": [
        {
          "internalType": "address",
          "name": "_reputationRegistry",
          "type": "address"
        },
        {
          "internalType": "address",
          "name": "_rewardEngine",
          "type": "address"
        }
      ],
      "stateMutability": "nonpayable",
      "type": "constructor"
    },
    {
      "inputs": [],
      "name": "AccessControlBadConfirmation",
      "type": "error"
    },
    {
      "inputs": [
        {
          "internalType": "address",
          "name": "account",
          "type": "address"
        },
        {
          "internalType": "bytes32",
          "name": "neededRole",
          "type": "bytes32"
        }
      ],
      "name": "AccessControlUnauthorizedAccount",
      "type": "error"
    },
    {
      "anonymous": false,
      "inputs": [
        {
          "indexed": true,
          "internalType": "uint256",
          "name": "jobId",
          "type": "uint256"
        },
        {
          "indexed": true,
          "internalType": "address",
          "name": "worker",
          "type": "address"
        }
      ],
      "name": "JobAccepted",
      "type": "event"
    },
    {
      "anonymous": false,
      "inputs": [
        {
          "indexed": true,
          "internalType": "uint256",
          "name": "jobId",
          "type": "uint256"
        },
        {
          "indexed": true,
          "internalType": "address",
          "name": "worker",
          "type": "address"
        },
        {
          "indexed": false,
          "internalType": "uint8",
          "name": "rating",
          "type": "uint8"
        }
      ],
      "name": "JobCompleted",
      "type": "event"
    },
    {
      "anonymous": false,
      "inputs": [
        {
          "indexed": true,
          "internalType": "uint256",
          "name": "jobId",
          "type": "uint256"
        },
        {
          "indexed": true,
          "internalType": "address",
          "name": "worker",
          "type": "address"
        },
        {
          "indexed": false,
          "internalType": "string",
          "name": "evidenceHash",
          "type": "string"
        }
      ],
      "name": "JobDisputed",
      "type": "event"
    },
    {
      "anonymous": false,
      "inputs": [
        {
          "indexed": true,
          "internalType": "uint256",
          "name": "jobId",
          "type": "uint256"
        },
        {
          "indexed": true,
          "internalType": "address",
          "name": "customer",
          "type": "address"
        },
        {
          "indexed": false,
          "internalType": "uint256",
          "name": "bounty",
          "type": "uint256"
        },
        {
          "indexed": false,
          "internalType": "uint256",
          "name": "bondRequired",
          "type": "uint256"
        }
      ],
      "name": "JobPosted",
      "type": "event"
    },
    {
      "anonymous": false,
      "inputs": [
        {
          "indexed": true,
          "internalType": "uint256",
          "name": "jobId",
          "type": "uint256"
        },
        {
          "indexed": true,
          "internalType": "address",
          "name": "worker",
          "type": "address"
        },
        {
          "indexed": false,
          "internalType": "uint256",
          "name": "amount",
          "type": "uint256"
        }
      ],
      "name": "JobSlashed",
      "type": "event"
    },
    {
      "anonymous": false,
      "inputs": [
        {
          "indexed": true,
          "internalType": "bytes32",
          "name": "role",
          "type": "bytes32"
        },
        {
          "indexed": true,
          "internalType": "bytes32",
          "name": "previousAdminRole",
          "type": "bytes32"
        },
        {
          "indexed": true,
          "internalType": "bytes32",
          "name": "newAdminRole",
          "type": "bytes32"
        }
      ],
      "name": "RoleAdminChanged",
      "type": "event"
    },
    {
      "anonymous": false,
      "inputs": [
        {
          "indexed": true,
          "internalType": "bytes32",
          "name": "role",
          "type": "bytes32"
        },
        {
          "indexed": true,
          "internalType": "address",
          "name": "account",
          "type": "address"
        },
        {
          "indexed": true,
          "internalType": "address",
          "name": "sender",
          "type": "address"
        }
      ],
      "name": "RoleGranted",
      "type": "event"
    },
    {
      "anonymous": false,
      "inputs": [
        {
          "indexed": true,
          "internalType": "bytes32",
          "name": "role",
          "type": "bytes32"
        },
        {
          "indexed": true,
          "internalType": "address",
          "name": "account",
          "type": "address"
        },
        {
          "indexed": true,
          "internalType": "address",
          "name": "sender",
          "type": "address"
        }
      ],
      "name": "RoleRevoked",
      "type": "event"
    },
    {
      "inputs": [],
      "name": "DEFAULT_ADMIN_ROLE",
      "outputs": [
        {
          "internalType": "bytes32",
          "name": "",
          "type": "bytes32"
        }
      ],
      "stateMutability": "view",
      "type": "function"
    },
    {
      "inputs": [],
      "name": "ORACLE_ROLE",
      "outputs": [
        {
          "internalType": "bytes32",
          "name": "",
          "type": "bytes32"
        }
      ],
      "stateMutability": "view",
      "type": "function"
    },
    {
      "inputs": [
        {
          "internalType": "uint256",
          "name": "_jobId",
          "type": "uint256"
        }
      ],
      "name": "acceptJob",
      "outputs": [],
      "stateMutability": "payable",
      "type": "function"
    },
    {
      "inputs": [
        {
          "internalType": "uint256",
          "name": "_jobId",
          "type": "uint256"
        },
        {
          "internalType": "uint8",
          "name": "_rating",
          "type": "uint8"
        }
      ],
      "name": "completeJob",
      "outputs": [],
      "stateMutability": "nonpayable",
      "type": "function"
    },
    {
      "inputs": [
        {
          "internalType": "uint256",
          "name": "_jobId",
          "type": "uint256"
        },
        {
          "internalType": "string",
          "name": "_evidenceHash",
          "type": "string"
        }
      ],
      "name": "disputeJob",
      "outputs": [],
      "stateMutability": "nonpayable",
      "type": "function"
    },
    {
      "inputs": [
        {
          "internalType": "bytes32",
          "name": "role",
          "type": "bytes32"
        }
      ],
      "name": "getRoleAdmin",
      "outputs": [
        {
          "internalType": "bytes32",
          "name": "",
          "type": "bytes32"
        }
      ],
      "stateMutability": "view",
      "type": "function"
    },
    {
      "inputs": [
        {
          "internalType": "bytes32",
          "name": "role",
          "type": "bytes32"
        },
        {
          "internalType": "address",
          "name": "account",
          "type": "address"
        }
      ],
      "name": "grantRole",
      "outputs": [],
      "stateMutability": "nonpayable",
      "type": "function"
    },
    {
      "inputs": [
        {
          "internalType": "bytes32",
          "name": "role",
          "type": "bytes32"
        },
        {
          "internalType": "address",
          "name": "account",
          "type": "address"
        }
      ],
      "name": "hasRole",
      "outputs": [
        {
          "internalType": "bool",
          "name": "",
          "type": "bool"
        }
      ],
      "stateMutability": "view",
      "type": "function"
    },
    {
      "inputs": [
        {
          "internalType": "uint256",
          "name": "",
          "type": "uint256"
        }
      ],
      "name": "jobs",
      "outputs": [
        {
          "internalType": "address",
          "name": "customer",
          "type": "address"
        },
        {
          "internalType": "address",
          "name": "worker",
          "type": "address"
        },
        {
          "internalType": "uint256",
          "name": "bounty",
          "type": "uint256"
        },
        {
          "internalType": "uint256",
          "name": "workerBond",
          "type": "uint256"
        },
        {
          "internalType": "uint256",
          "name": "timestamp",
          "type": "uint256"
        },
        {
          "internalType": "string",
          "name": "jobType",
          "type": "string"
        },
        {
          "internalType": "enum LazyTaskMarketplace.JobStatus",
          "name": "status",
          "type": "uint8"
        }
      ],
      "stateMutability": "view",
      "type": "function"
    },
    {
      "inputs": [],
      "name": "nextJobId",
      "outputs": [
        {
          "internalType": "uint256",
          "name": "",
          "type": "uint256"
        }
      ],
      "stateMutability": "view",
      "type": "function"
    },
    {
      "inputs": [
        {
          "internalType": "string",
          "name": "_jobType",
          "type": "string"
        },
        {
          "internalType": "uint256",
          "name": "_bondRequired",
          "type": "uint256"
        }
      ],
      "name": "postJob",
      "outputs": [],
      "stateMutability": "payable",
      "type": "function"
    },
    {
      "inputs": [
        {
          "internalType": "bytes32",
          "name": "role",
          "type": "bytes32"
        },
        {
          "internalType": "address",
          "name": "callerConfirmation",
          "type": "address"
        }
      ],
      "name": "renounceRole",
      "outputs": [],
      "stateMutability": "nonpayable",
      "type": "function"
    },
    {
      "inputs": [],
      "name": "reputationRegistry",
      "outputs": [
        {
          "internalType": "address",
          "name": "",
          "type": "address"
        }
      ],
      "stateMutability": "view",
      "type": "function"
    },
    {
      "inputs": [
        {
          "internalType": "bytes32",
          "name": "role",
          "type": "bytes32"
        },
        {
          "internalType": "address",
          "name": "account",
          "type": "address"
        }
      ],
      "name": "revokeRole",
      "outputs": [],
      "stateMutability": "nonpayable",
      "type": "function"
    },
    {
      "inputs": [],
      "name": "rewardEngine",
      "outputs": [
        {
          "internalType": "address",
          "name": "",
          "type": "address"
        }
      ],
      "stateMutability": "view",
      "type": "function"
    },
    {
      "inputs": [
        {
          "internalType": "uint256",
          "name": "_jobId",
          "type": "uint256"
        }
      ],
      "name": "slashBond",
      "outputs": [],
      "stateMutability": "nonpayable",
      "type": "function"
    },
    {
      "inputs": [
        {
          "internalType": "bytes4",
          "name": "interfaceId",
          "type": "bytes4"
        }
      ],
      "name": "supportsInterface",
      "outputs": [
        {
          "internalType": "bool",
          "name": "",
          "type": "bool"
        }
      ],
      "stateMutability": "view",
      "type": "function"
    }
  ],
  "bytecode": "0x608060405234801561001057600080fd5b50604051612b28380380612b28833981810160405281019061003291906102a1565b6100456000801b336100cf60201b60201c565b5081600360006101000a81548173ffffffffffffffffffffffffffffffffffffffff021916908373ffffffffffffffffffffffffffffffffffffffff16021790555080600460006101000a81548173ffffffffffffffffffffffffffffffffffffffff021916908373ffffffffffffffffffffffffffffffffffffffff16021790555050506102e1565b60006100e183836101cc60201b60201c565b6101c157600160008085815260200190815260200160002060000160008473ffffffffffffffffffffffffffffffffffffffff1673ffffffffffffffffffffffffffffffffffffffff16815260200190815260200160002060006101000a81548160ff02191690831515021790555061015e61023660201b60201c565b73ffffffffffffffffffffffffffffffffffffffff168273ffffffffffffffffffffffffffffffffffffffff16847f2f8788117e7eff1d82e926ec794901d17c78024a50270940304540a733656f0d60405160405180910390a4600190506101c6565b600090505b92915050565b600080600084815260200190815260200160002060000160008373ffffffffffffffffffffffffffffffffffffffff1673ffffffffffffffffffffffffffffffffffffffff16815260200190815260200160002060009054906101000a900460ff16905092915050565b600033905090565b600080fd5b600073ffffffffffffffffffffffffffffffffffffffff82169050919050565b600061026e82610243565b9050919050565b61027e81610263565b811461028957600080fd5b50565b60008151905061029b81610275565b92915050565b600080604083850312156102b8576102b761023e565b5b60006102c68582860161028c565b92505060206102d78582860161028c565b9150509250929050565b612838806102f06000396000f3fe6080604052600436106100fe5760003560e01c806391d1485411610095578063b3120a2711610064578063b3120a2714610340578063c8db44e314610369578063d547741f14610394578063dca137b4146103bd578063eb9a4e93146103e6576100fe565b806391d1485414610282578063a217fddf146102bf578063ab5829d7146102ea578063b0c2aa5e14610315576100fe565b8063248a9ca3116100d1578063248a9ca3146101d75780632f2ff15d1461021457806336568abe1461023d57806363b2f3c914610266576100fe565b806301ffc9a71461010357806307e2cea514610140578063127379101461016b578063180aedf314610194575b600080fd5b34801561010f57600080fd5b5061012a60048036038101906101259190611877565b610402565b60405161013791906118bf565b60405180910390f35b34801561014c57600080fd5b5061015561047c565b60405161016291906118f3565b60405180910390f35b34801561017757600080fd5b50610192600480360381019061018d9190611944565b6104a0565b005b3480156101a057600080fd5b506101bb60048036038101906101b69190611944565b6107ca565b6040516101ce9796959493929190611ac8565b60405180910390f35b3480156101e357600080fd5b506101fe60048036038101906101f99190611b6a565b6108e1565b60405161020b91906118f3565b60405180910390f35b34801561022057600080fd5b5061023b60048036038101906102369190611bc3565b610900565b005b34801561024957600080fd5b50610264600480360381019061025f9190611bc3565b610922565b005b610280600480360381019061027b9190611944565b61099d565b005b34801561028e57600080fd5b506102a960048036038101906102a49190611bc3565b610c0b565b6040516102b691906118bf565b60405180910390f35b3480156102cb57600080fd5b506102d4610c75565b6040516102e191906118f3565b60405180910390f35b3480156102f657600080fd5b506102ff610c7c565b60405161030c9190611c03565b60405180910390f35b34801561032157600080fd5b5061032a610ca2565b6040516103379190611c1e565b60405180910390f35b34801561034c57600080fd5b5061036760048036038101906103629190611d6e565b610ca8565b005b34801561037557600080fd5b5061037e610e89565b60405161038b9190611c03565b60405180910390f35b3480156103a057600080fd5b506103bb60048036038101906103b69190611bc3565b610eaf565b005b3480156103c957600080fd5b506103e460048036038101906103df9190611e03565b610ed1565b005b61040060048036038101906103fb9190611e43565b611322565b005b60007f7965db0b000000000000000000000000000000000000000000000000000000007bffffffffffffffffffffffffffffffffffffffffffffffffffffffff1916827bffffffffffffffffffffffffffffffffffffffffffffffffffffffff19161480610475575061047482611551565b5b9050919050565b7f68e79a7bf1e0bc45d0a330c573bc367f9cf464fd326078812f301165fbda4ef181565b6000801b6104ad816115bb565b6000600160008481526020019081526020016000209050600360048111156104d8576104d7611a51565b5b8160060160009054906101000a900460ff1660048111156104fc576104fb611a51565b5b148061053d57506001600481111561051757610516611a51565b5b8160060160009054906101000a900460ff16600481111561053b5761053a611a51565b5b145b61057c576040517f08c379a000000000000000000000000000000000000000000000000000000000815260040161057390611eeb565b60405180910390fd5b60008160030154905060008111156106a7578160000160009054906101000a900473ffffffffffffffffffffffffffffffffffffffff1673ffffffffffffffffffffffffffffffffffffffff166108fc829081150290604051600060405180830381858888f193505050501580156105f8573d6000803e3d6000fd5b50600460009054906101000a900473ffffffffffffffffffffffffffffffffffffffff1673ffffffffffffffffffffffffffffffffffffffff166302fb4d858360010160009054906101000a900473ffffffffffffffffffffffffffffffffffffffff16836040518363ffffffff1660e01b815260040161067a929190611f0b565b600060405180830381600087803b15801561069457600080fd5b505af19250505080156106a5575060015b505b600082600201541115610724578160000160009054906101000a900473ffffffffffffffffffffffffffffffffffffffff1673ffffffffffffffffffffffffffffffffffffffff166108fc83600201549081150290604051600060405180830381858888f19350505050158015610722573d6000803e3d6000fd5b505b60048260060160006101000a81548160ff0219169083600481111561074c5761074b611a51565b5b02179055508160010160009054906101000a900473ffffffffffffffffffffffffffffffffffffffff1673ffffffffffffffffffffffffffffffffffffffff16847fd55e4bfec83a785390aded3a9bfcc350dcb5a67382a1f71f1aeecabf07fa2a94836040516107bc9190611c1e565b60405180910390a350505050565b60016020528060005260406000206000915090508060000160009054906101000a900473ffffffffffffffffffffffffffffffffffffffff16908060010160009054906101000a900473ffffffffffffffffffffffffffffffffffffffff169080600201549080600301549080600401549080600501805461084b90611f63565b80601f016020809104026020016040519081016040528092919081815260200182805461087790611f63565b80156108c45780601f10610899576101008083540402835291602001916108c4565b820191906000526020600020905b8154815290600101906020018083116108a757829003601f168201915b5050505050908060060160009054906101000a900460ff16905087565b6000806000838152602001908152602001600020600101549050919050565b610909826108e1565b610912816115bb565b61091c83836115cf565b50505050565b61092a6116c0565b73ffffffffffffffffffffffffffffffffffffffff168173ffffffffffffffffffffffffffffffffffffffff161461098e576040517f6697b23200000000000000000000000000000000000000000000000000000000815260040160405180910390fd5b61099882826116c8565b505050565b6000600160008381526020019081526020016000209050600060048111156109c8576109c7611a51565b5b8160060160009054906101000a900460ff1660048111156109ec576109eb611a51565b5b14610a2c576040517f08c379a0000000000000000000000000000000000000000000000000000000008152600401610a2390611fe0565b60405180910390fd5b8060030154341015610a73576040517f08c379a0000000000000000000000000000000000000000000000000000000008152600401610a6a9061204c565b60405180910390fd5b600360009054906101000a900473ffffffffffffffffffffffffffffffffffffffff1673ffffffffffffffffffffffffffffffffffffffff1663f4ff553933836005016040518363ffffffff1660e01b8152600401610ad3929190612105565b602060405180830381865afa158015610af0573d6000803e3d6000fd5b505050506040513d601f19601f82011682018060405250810190610b149190612161565b610b53576040517f08c379a0000000000000000000000000000000000000000000000000000000008152600401610b4a906121da565b60405180910390fd5b338160010160006101000a81548173ffffffffffffffffffffffffffffffffffffffff021916908373ffffffffffffffffffffffffffffffffffffffff16021790555060018160060160006101000a81548160ff02191690836004811115610bbe57610bbd611a51565b5b02179055503373ffffffffffffffffffffffffffffffffffffffff16827f4426e4a90a9570c8f678a263b11785eaaade8b79d76d18c43d4d8e00062e4f8360405160405180910390a35050565b600080600084815260200190815260200160002060000160008373ffffffffffffffffffffffffffffffffffffffff1673ffffffffffffffffffffffffffffffffffffffff16815260200190815260200160002060009054906101000a900460ff16905092915050565b6000801b81565b600460009054906101000a900473ffffffffffffffffffffffffffffffffffffffff1681565b60025481565b60006001600084815260200190815260200160002090508060010160009054906101000a900473ffffffffffffffffffffffffffffffffffffffff1673ffffffffffffffffffffffffffffffffffffffff163373ffffffffffffffffffffffffffffffffffffffff1614610d51576040517f08c379a0000000000000000000000000000000000000000000000000000000008152600401610d4890612246565b60405180910390fd5b60016004811115610d6557610d64611a51565b5b8160060160009054906101000a900460ff166004811115610d8957610d88611a51565b5b1480610dc95750600480811115610da357610da2611a51565b5b8160060160009054906101000a900460ff166004811115610dc757610dc6611a51565b5b145b610e08576040517f08c379a0000000000000000000000000000000000000000000000000000000008152600401610dff906122b2565b60405180910390fd5b60038160060160006101000a81548160ff02191690836004811115610e3057610e2f611a51565b5b02179055503373ffffffffffffffffffffffffffffffffffffffff16837fb59122d87b9a129d9dbb8103c368a3de4e00b50a9fc86c22d48c74cca778e67084604051610e7c91906122d2565b60405180910390a3505050565b600360009054906101000a900473ffffffffffffffffffffffffffffffffffffffff1681565b610eb8826108e1565b610ec1816115bb565b610ecb83836116c8565b50505050565b60006001600084815260200190815260200160002090508060000160009054906101000a900473ffffffffffffffffffffffffffffffffffffffff1673ffffffffffffffffffffffffffffffffffffffff163373ffffffffffffffffffffffffffffffffffffffff161480610f6c5750610f6b7f68e79a7bf1e0bc45d0a330c573bc367f9cf464fd326078812f301165fbda4ef133610c0b565b5b610fab576040517f08c379a0000000000000000000000000000000000000000000000000000000008152600401610fa290612340565b60405180910390fd5b60016004811115610fbf57610fbe611a51565b5b8160060160009054906101000a900460ff166004811115610fe357610fe2611a51565b5b14611023576040517f08c379a000000000000000000000000000000000000000000000000000000000815260040161101a906123ac565b60405180910390fd5b60028160060160006101000a81548160ff0219169083600481111561104b5761104a611a51565b5b02179055508060010160009054906101000a900473ffffffffffffffffffffffffffffffffffffffff1673ffffffffffffffffffffffffffffffffffffffff166108fc82600201549081150290604051600060405180830381858888f193505050501580156110be573d6000803e3d6000fd5b5060008160030154111561113c578060010160009054906101000a900473ffffffffffffffffffffffffffffffffffffffff1673ffffffffffffffffffffffffffffffffffffffff166108fc82600301549081150290604051600060405180830381858888f1935050505015801561113a573d6000803e3d6000fd5b505b600360009054906101000a900473ffffffffffffffffffffffffffffffffffffffff1673ffffffffffffffffffffffffffffffffffffffff1663abc0c6c18260010160009054906101000a900473ffffffffffffffffffffffffffffffffffffffff16858585600201546040518563ffffffff1660e01b81526004016111c594939291906123db565b600060405180830381600087803b1580156111df57600080fd5b505af11580156111f3573d6000803e3d6000fd5b50505050600460009054906101000a900473ffffffffffffffffffffffffffffffffffffffff1673ffffffffffffffffffffffffffffffffffffffff16635f24ff0c8260010160009054906101000a900473ffffffffffffffffffffffffffffffffffffffff16846040518363ffffffff1660e01b8152600401611278929190612420565b600060405180830381600087803b15801561129257600080fd5b505af11580156112a6573d6000803e3d6000fd5b505050508060010160009054906101000a900473ffffffffffffffffffffffffffffffffffffffff1673ffffffffffffffffffffffffffffffffffffffff16837ff4d2f342fbed5f116854099865066c8c192b8a31c7c95b41b8bc41f39edc95ec846040516113159190612449565b60405180910390a3505050565b60003411611365576040517f08c379a000000000000000000000000000000000000000000000000000000000815260040161135c906124b0565b60405180910390fd5b60006002600081548092919061137a906124ff565b9190505590506040518060e001604052803373ffffffffffffffffffffffffffffffffffffffff168152602001600073ffffffffffffffffffffffffffffffffffffffff168152602001348152602001838152602001428152602001848152602001600060048111156113f0576113ef611a51565b5b8152506001600083815260200190815260200160002060008201518160000160006101000a81548173ffffffffffffffffffffffffffffffffffffffff021916908373ffffffffffffffffffffffffffffffffffffffff16021790555060208201518160010160006101000a81548173ffffffffffffffffffffffffffffffffffffffff021916908373ffffffffffffffffffffffffffffffffffffffff16021790555060408201518160020155606082015181600301556080820151816004015560a08201518160050190816114c791906126de565b5060c08201518160060160006101000a81548160ff021916908360048111156114f3576114f2611a51565b5b02179055509050503373ffffffffffffffffffffffffffffffffffffffff16817fc395422cf0471e0b91fe523372800edb102f71150f46497121d9b80c3812534d34856040516115449291906127b0565b60405180910390a3505050565b60007f01ffc9a7000000000000000000000000000000000000000000000000000000007bffffffffffffffffffffffffffffffffffffffffffffffffffffffff1916827bffffffffffffffffffffffffffffffffffffffffffffffffffffffff1916149050919050565b6115cc816115c76116c0565b6117ba565b50565b60006115db8383610c0b565b6116b557600160008085815260200190815260200160002060000160008473ffffffffffffffffffffffffffffffffffffffff1673ffffffffffffffffffffffffffffffffffffffff16815260200190815260200160002060006101000a81548160ff0219169083151502179055506116526116c0565b73ffffffffffffffffffffffffffffffffffffffff168273ffffffffffffffffffffffffffffffffffffffff16847f2f8788117e7eff1d82e926ec794901d17c78024a50270940304540a733656f0d60405160405180910390a4600190506116ba565b600090505b92915050565b600033905090565b60006116d48383610c0b565b156117af57600080600085815260200190815260200160002060000160008473ffffffffffffffffffffffffffffffffffffffff1673ffffffffffffffffffffffffffffffffffffffff16815260200190815260200160002060006101000a81548160ff02191690831515021790555061174c6116c0565b73ffffffffffffffffffffffffffffffffffffffff168273ffffffffffffffffffffffffffffffffffffffff16847ff6391f5c32d9c69d2a47ea670b442974b53935d1edc7fd64eb21e047a839171b60405160405180910390a4600190506117b4565b600090505b92915050565b6117c48282610c0b565b6118075780826040517fe2517d3f0000000000000000000000000000000000000000000000000000000081526004016117fe9291906127d9565b60405180910390fd5b5050565b6000604051905090565b600080fd5b600080fd5b60007fffffffff0000000000000000000000000000000000000000000000000000000082169050919050565b6118548161181f565b811461185f57600080fd5b50565b6000813590506118718161184b565b92915050565b60006020828403121561188d5761188c611815565b5b600061189b84828501611862565b91505092915050565b60008115159050919050565b6118b9816118a4565b82525050565b60006020820190506118d460008301846118b0565b92915050565b6000819050919050565b6118ed816118da565b82525050565b600060208201905061190860008301846118e4565b92915050565b6000819050919050565b6119218161190e565b811461192c57600080fd5b50565b60008135905061193e81611918565b92915050565b60006020828403121561195a57611959611815565b5b60006119688482850161192f565b91505092915050565b600073ffffffffffffffffffffffffffffffffffffffff82169050919050565b600061199c82611971565b9050919050565b6119ac81611991565b82525050565b6119bb8161190e565b82525050565b600081519050919050565b600082825260208201905092915050565b60005b838110156119fb5780820151818401526020810190506119e0565b60008484015250505050565b6000601f19601f8301169050919050565b6000611a23826119c1565b611a2d81856119cc565b9350611a3d8185602086016119dd565b611a4681611a07565b840191505092915050565b7f4e487b7100000000000000000000000000000000000000000000000000000000600052602160045260246000fd5b60058110611a9157611a90611a51565b5b50565b6000819050611aa282611a80565b919050565b6000611ab282611a94565b9050919050565b611ac281611aa7565b82525050565b600060e082019050611add600083018a6119a3565b611aea60208301896119a3565b611af760408301886119b2565b611b0460608301876119b2565b611b1160808301866119b2565b81810360a0830152611b238185611a18565b9050611b3260c0830184611ab9565b98975050505050505050565b611b47816118da565b8114611b5257600080fd5b50565b600081359050611b6481611b3e565b92915050565b600060208284031215611b8057611b7f611815565b5b6000611b8e84828501611b55565b91505092915050565b611ba081611991565b8114611bab57600080fd5b50565b600081359050611bbd81611b97565b92915050565b60008060408385031215611bda57611bd9611815565b5b6000611be885828601611b55565b9250506020611bf985828601611bae565b9150509250929050565b6000602082019050611c1860008301846119a3565b92915050565b6000602082019050611c3360008301846119b2565b92915050565b600080fd5b600080fd5b7f4e487b7100000000000000000000000000000000000000000000000000000000600052604160045260246000fd5b611c7b82611a07565b810181811067ffffffffffffffff82111715611c9a57611c99611c43565b5b80604052505050565b6000611cad61180b565b9050611cb98282611c72565b919050565b600067ffffffffffffffff821115611cd957611cd8611c43565b5b611ce282611a07565b9050602081019050919050565b82818337600083830152505050565b6000611d11611d0c84611cbe565b611ca3565b905082815260208101848484011115611d2d57611d2c611c3e565b5b611d38848285611cef565b509392505050565b600082601f830112611d5557611d54611c39565b5b8135611d65848260208601611cfe565b91505092915050565b60008060408385031215611d8557611d84611815565b5b6000611d938582860161192f565b925050602083013567ffffffffffffffff811115611db457611db361181a565b5b611dc085828601611d40565b9150509250929050565b600060ff82169050919050565b611de081611dca565b8114611deb57600080fd5b50565b600081359050611dfd81611dd7565b92915050565b60008060408385031215611e1a57611e19611815565b5b6000611e288582860161192f565b9250506020611e3985828601611dee565b9150509250929050565b60008060408385031215611e5a57611e59611815565b5b600083013567ffffffffffffffff811115611e7857611e7761181a565b5b611e8485828601611d40565b9250506020611e958582860161192f565b9150509250929050565b7f496e76616c696420737461747573000000000000000000000000000000000000600082015250565b6000611ed5600e836119cc565b9150611ee082611e9f565b602082019050919050565b60006020820190508181036000830152611f0481611ec8565b9050919050565b6000604082019050611f2060008301856119a3565b611f2d60208301846119b2565b9392505050565b7f4e487b7100000000000000000000000000000000000000000000000000000000600052602260045260246000fd5b60006002820490506001821680611f7b57607f821691505b602082108103611f8e57611f8d611f34565b5b50919050565b7f4a6f62206e6f7420617661696c61626c65000000000000000000000000000000600082015250565b6000611fca6011836119cc565b9150611fd582611f94565b602082019050919050565b60006020820190508181036000830152611ff981611fbd565b9050919050565b7f496e73756666696369656e7420626f6e64000000000000000000000000000000600082015250565b60006120366011836119cc565b915061204182612000565b602082019050919050565b6000602082019050818103600083015261206581612029565b9050919050565b60008190508160005260206000209050919050565b6000815461208e81611f63565b61209881866119cc565b945060018216600081146120b357600181146120c9576120fc565b60ff1983168652811515602002860193506120fc565b6120d28561206c565b60005b838110156120f4578154818901526001820191506020810190506120d5565b808801955050505b50505092915050565b600060408201905061211a60008301856119a3565b818103602083015261212c8184612081565b90509392505050565b61213e816118a4565b811461214957600080fd5b50565b60008151905061215b81612135565b92915050565b60006020828403121561217757612176611815565b5b60006121858482850161214c565b91505092915050565b7f4e6f7420656c696769626c650000000000000000000000000000000000000000600082015250565b60006121c4600c836119cc565b91506121cf8261218e565b602082019050919050565b600060208201905081810360008301526121f3816121b7565b9050919050565b7f4f6e6c7920776f726b65722063616e2064697370757465000000000000000000600082015250565b60006122306017836119cc565b915061223b826121fa565b602082019050919050565b6000602082019050818103600083015261225f81612223565b9050919050565b7f496e76616c69642073746174757320666f722064697370757465000000000000600082015250565b600061229c601a836119cc565b91506122a782612266565b602082019050919050565b600060208201905081810360008301526122cb8161228f565b9050919050565b600060208201905081810360008301526122ec8184611a18565b905092915050565b7f4e6f7420617574686f72697a6564000000000000000000000000000000000000600082015250565b600061232a600e836119cc565b9150612335826122f4565b602082019050919050565b600060208201905081810360008301526123598161231d565b9050919050565b7f4a6f62206e6f7420616363657074656400000000000000000000000000000000600082015250565b60006123966010836119cc565b91506123a182612360565b602082019050919050565b600060208201905081810360008301526123c581612389565b9050919050565b6123d581611dca565b82525050565b60006080820190506123f060008301876119a3565b6123fd60208301866119b2565b61240a60408301856123cc565b61241760608301846119b2565b95945050505050565b600060408201905061243560008301856119a3565b61244260208301846123cc565b9392505050565b600060208201905061245e60008301846123cc565b92915050565b7f426f756e74792072657175697265640000000000000000000000000000000000600082015250565b600061249a600f836119cc565b91506124a582612464565b602082019050919050565b600060208201905081810360008301526124c98161248d565b9050919050565b7f4e487b7100000000000000000000000000000000000000000000000000000000600052601160045260246000fd5b600061250a8261190e565b91507fffffffffffffffffffffffffffffffffffffffffffffffffffffffffffffffff820361253c5761253b6124d0565b5b600182019050919050565b60006020601f8301049050919050565b600082821b905092915050565b6000600883026125947fffffffffffffffffffffffffffffffffffffffffffffffffffffffffffffffff82612557565b61259e8683612557565b95508019841693508086168417925050509392505050565b6000819050919050565b60006125db6125d66125d18461190e565b6125b6565b61190e565b9050919050565b6000819050919050565b6125f5836125c0565b612609612601826125e2565b848454612564565b825550505050565b600090565b61261e612611565b6126298184846125ec565b505050565b5b8181101561264d57612642600082612616565b60018101905061262f565b5050565b601f821115612692576126638161206c565b61266c84612547565b8101602085101561267b578190505b61268f61268785612547565b83018261262e565b50505b505050565b600082821c905092915050565b60006126b560001984600802612697565b1980831691505092915050565b60006126ce83836126a4565b9150826002028217905092915050565b6126e7826119c1565b67ffffffffffffffff811115612700576126ff611c43565b5b61270a8254611f63565b612715828285612651565b600060209050601f8311600181146127485760008415612736578287015190505b61274085826126c2565b8655506127a8565b601f1984166127568661206c565b60005b8281101561277e57848901518255600182019150602085019450602081019050612759565b8683101561279b5784890151612797601f8916826126a4565b8355505b6001600288020188555050505b505050505050565b60006040820190506127c560008301856119b2565b6127d260208301846119b2565b9392505050565b60006040820190506127ee60008301856119a3565b6127fb60208301846118e4565b939250505056fea26469706673582212202d3e45fc622baf0b26ec9235425026fa04d20c4a93442ae5d83ecfbb1bfdb87064736f6c634300081c0033",
  "linkReferences": {},
  "deployedLinkReferences": {}
}